{
  "transactions": [
    {
      "hash": "0xe9acc5790b9577aa17334a9e21e59318735adbc3b4c41ebbfee1587967eedd27",
      "transactionType": "CALL",
      "contractName": null,
      "contractAddress": "0x9721c00e00de86f1b69cd33c93d78138d608522c",
      "function": "mintNFT(string)",
      "arguments": [
        "ipfs://QmNeHrqcR6sFUhma16LJpQL3ym6fXE3Dh5qigZmSwjFc6q"
      ],
      "transaction": {
        "from": "0x50018df236d73b9b341f56867ac66bdade6a6194",
        "to": "0x9721c00e00de86f1b69cd33c93d78138d608522c",
        "gas": "0x392c3",
        "value": "0x0",
        "input": "0xfb37e88300000000000000000000000000000000000000000000000000000000000000200000000000000000000000000000000000000000000000000000000000000035697066733a2f2f516d4e65487271635236734655686d6131364c4a70514c33796d36665845334468357169675a6d53776a466336710000000000000000000000",
        "nonce": "0x1d",
        "chainId": "0xaa36a7"
      },
      "additionalContracts": [],
      "isFixedGasLimit": false
    }
  ],
  "receipts": [
    {
      "status": "0x1",
      "cumulativeGasUsed": "0x9ff623",
      "logs": [
        {
          "address": "0x9721c00e00de86f1b69cd33c93d78138d608522c",
          "topics": [
            "0xddf252ad1be2c89b69c2b068fc378daa952ba7f163c4a11628f55a4df523b3ef",
            "0x0000000000000000000000000000000000000000000000000000000000000000",
            "0x00000000000000000000000050018df236d73b9b341f56867ac66bdade6a6194",
            "0x0000000000000000000000000000000000000000000000000000000000000000"
          ],
          "data": "0x",
          "blockHash": "0x93e1842a9734551655e08a3c845fa6cb4689120b930191326030bdce68d217b7",
          "blockNumber": "0x8ade07",
          "blockTimestamp": "0x68b3c0a4",
          "transactionHash": "0xe9acc5790b9577aa17334a9e21e59318735adbc3b4c41ebbfee1587967eedd27",
          "transactionIndex": "0x61",
          "logIndex": "0xa1",
          "removed": false
        }
      ],
      "logsBloom": "0x00000000000000000000000000000000000000000000000000000000000000000000000000000000000000000000002000000000000000000000000000000000000000000000000000000008000000000000000000000000000000000000000000000000020000000000000000000800000000000000000000000010000000000000000000020000000000000000000000000000000000000000000000000000000000000000000000000000000200000000000200000000000000000000000000000002000000000000000000000000000000000000000000000000000020000000000000000000000000000000001000000000000000000800000000000000",
      "type": "0x2",
      "transactionHash": "0xe9acc5790b9577aa17334a9e21e59318735adbc3b4c41ebbfee1587967eedd27",
      "transactionIndex": "0x61",
      "blockHash": "0x93e1842a9734551655e08a3c845fa6cb4689120b930191326030bdce68d217b7",
      "blockNumber": "0x8ade07",
      "gasUsed": "0x2717b",
      "effectiveGasPrice": "0x30b5af3",
      "from": "0x50018df236d73b9b341f56867ac66bdade6a6194",
      "to": "0x9721c00e00de86f1b69cd33c93d78138d608522c",
      "contractAddress": null
    }
  ],
  "libraries": [],
  "pending": [],
  "returns": {},
  "timestamp": 1756610725740,
  "chain": 11155111,
  "commit": null
}