{
  "transactions": [
    {
      "hash": "0x25ef43c15568bff6edbb32af4dff790c53400f49da9839a56ad5f46ae33fae5d",
      "transactionType": "CALL",
      "contractName": null,
      "contractAddress": "0x015a7372ea40b099c3c198d110262ff0c5687226",
      "function": "mintNFT(string)",
      "arguments": [
        "https://ipfs.io/ipns/k51qzi5uqu5din4nw7tnp388c1geeeqg1de7mbvvpvuq4pet50ig3geasjr0x0"
      ],
      "transaction": {
        "from": "0x50018df236d73b9b341f56867ac66bdade6a6194",
        "to": "0x015a7372ea40b099c3c198d110262ff0c5687226",
        "gas": "0x41460",
        "value": "0x0",
        "input": "0xfb37e8830000000000000000000000000000000000000000000000000000000000000020000000000000000000000000000000000000000000000000000000000000005368747470733a2f2f697066732e696f2f69706e732f6b3531717a69357571753564696e346e7737746e703338386331676565657167316465376d62767670767571347065743530696733676561736a7230783000000000000000000000000000",
        "nonce": "0x21",
        "chainId": "0xaa36a7"
      },
      "additionalContracts": [],
      "isFixedGasLimit": false
    }
  ],
  "receipts": [
    {
      "status": "0x1",
      "cumulativeGasUsed": "0xf327b1",
      "logs": [
        {
          "address": "0x015a7372ea40b099c3c198d110262ff0c5687226",
          "topics": [
            "0xddf252ad1be2c89b69c2b068fc378daa952ba7f163c4a11628f55a4df523b3ef",
            "0x0000000000000000000000000000000000000000000000000000000000000000",
            "0x00000000000000000000000050018df236d73b9b341f56867ac66bdade6a6194",
            "0x0000000000000000000000000000000000000000000000000000000000000000"
          ],
          "data": "0x",
          "blockHash": "0xb3c624eeb936ba8b1d649145bae894e5022f2615fc52e1840af170cd520923b5",
          "blockNumber": "0x8adf3a",
          "blockTimestamp": "0x68b3cf14",
          "transactionHash": "0x25ef43c15568bff6edbb32af4dff790c53400f49da9839a56ad5f46ae33fae5d",
          "transactionIndex": "0x55",
          "logIndex": "0x76",
          "removed": false
        }
      ],
      "logsBloom": "0x00000000000000000000000000000000000000000000000000000000000000000000000000000000000000000000002000000000000200000000000000000000000000000000000000000008000000000000200000000000000000000000000000000001020000000000000000000800000000000000000000000010000000000000000000000000000000000000000000000000000000000000000000000000000000000000000000000000000000000000000200000000000000000000000000000002000000000000000000000000000000000000000000000000000020000000000000000000000000000000000000000000000000000800000000000000",
      "type": "0x2",
      "transactionHash": "0x25ef43c15568bff6edbb32af4dff790c53400f49da9839a56ad5f46ae33fae5d",
      "transactionIndex": "0x55",
      "blockHash": "0xb3c624eeb936ba8b1d649145bae894e5022f2615fc52e1840af170cd520923b5",
      "blockNumber": "0x8adf3a",
      "gasUsed": "0x2ca1b",
      "effectiveGasPrice": "0x5000843",
      "from": "0x50018df236d73b9b341f56867ac66bdade6a6194",
      "to": "0x015a7372ea40b099c3c198d110262ff0c5687226",
      "contractAddress": null
    }
  ],
  "libraries": [],
  "pending": [],
  "returns": {},
  "timestamp": 1756614420956,
  "chain": 11155111,
  "commit": null
}