{
  "transactions": [
    {
      "hash": "0x861522815203eaae8011f2d820f747de7015cb1c1ed5dbdeee701b85a3d95ad2",
      "transactionType": "CALL",
      "contractName": null,
      "contractAddress": "0xf0eba8ff295753b480f323ae01687c9fcf2c58f7",
      "function": "mintNFT(string)",
      "arguments": [
        "QmTAeou7Mxho8G1pZ7sKC1dUnWALGjZMq9RysZCfoR8c2b"
      ],
      "transaction": {
        "from": "0x50018df236d73b9b341f56867ac66bdade6a6194",
        "to": "0xf0eba8ff295753b480f323ae01687c9fcf2c58f7",
        "gas": "0x35f7d",
        "value": "0x0",
        "input": "0xfb37e8830000000000000000000000000000000000000000000000000000000000000020000000000000000000000000000000000000000000000000000000000000002e516d5441656f75374d78686f384731705a37734b433164556e57414c476a5a4d71395279735a43666f5238633262000000000000000000000000000000000000",
        "nonce": "0x1f",
        "chainId": "0xaa36a7"
      },
      "additionalContracts": [],
      "isFixedGasLimit": false
    }
  ],
  "receipts": [
    {
      "status": "0x1",
      "cumulativeGasUsed": "0xbac701",
      "logs": [
        {
          "address": "0xf0eba8ff295753b480f323ae01687c9fcf2c58f7",
          "topics": [
            "0xddf252ad1be2c89b69c2b068fc378daa952ba7f163c4a11628f55a4df523b3ef",
            "0x0000000000000000000000000000000000000000000000000000000000000000",
            "0x00000000000000000000000050018df236d73b9b341f56867ac66bdade6a6194",
            "0x0000000000000000000000000000000000000000000000000000000000000000"
          ],
          "data": "0x",
          "blockHash": "0xe6ee5845f89534364131fb7243c870b0284e4cd70ca47ad1c202107d51984fb3",
          "blockNumber": "0x8ade1f",
          "blockTimestamp": "0x68b3c1c4",
          "transactionHash": "0x861522815203eaae8011f2d820f747de7015cb1c1ed5dbdeee701b85a3d95ad2",
          "transactionIndex": "0x6d",
          "logIndex": "0xc6",
          "removed": false
        }
      ],
      "logsBloom": "0x00000000000000000000000000000000000000000000000000000000000000400000000000000000000000000000002000000000000000000000000000000000000000000000000000000008000000000000000000000000000000000000000000000000020000000000000000000800000000000000000000000010000000000000000000000000000000000000000000000000000000000000000000000000000000000000000000000000000080000000000200000000000000000000800000000002000000000000000000000000000000000000000000000000000020000000000000000000000000000000000000000000000000000800000000000000",
      "type": "0x2",
      "transactionHash": "0x861522815203eaae8011f2d820f747de7015cb1c1ed5dbdeee701b85a3d95ad2",
      "transactionIndex": "0x6d",
      "blockHash": "0xe6ee5845f89534364131fb7243c870b0284e4cd70ca47ad1c202107d51984fb3",
      "blockNumber": "0x8ade1f",
      "gasUsed": "0x27127",
      "effectiveGasPrice": "0x261b016",
      "from": "0x50018df236d73b9b341f56867ac66bdade6a6194",
      "to": "0xf0eba8ff295753b480f323ae01687c9fcf2c58f7",
      "contractAddress": null
    }
  ],
  "libraries": [],
  "pending": [],
  "returns": {},
  "timestamp": 1756611013155,
  "chain": 11155111,
  "commit": null
}